{
    "abi": [
        {
            "type": "constructor",
            "inputs": [],
            "stateMutability": "nonpayable"
        },
        {
            "type": "function",
            "name": "baseDrawPrice",
            "inputs": [],
            "outputs": [
                {
                    "name": "",
                    "type": "uint256",
                    "internalType": "uint256"
                }
            ],
            "stateMutability": "view"
        },
        {
            "type": "function",
            "name": "drawCard",
            "inputs": [],
            "outputs": [],
            "stateMutability": "payable"
        },
        {
            "type": "function",
            "name": "drawnCards",
            "inputs": [
                {
                    "name": "",
                    "type": "uint256",
                    "internalType": "uint256"
                }
            ],
            "outputs": [
                {
                    "name": "",
                    "type": "bool",
                    "internalType": "bool"
                }
            ],
            "stateMutability": "view"
        },
        {
            "type": "function",
            "name": "feeRecipient",
            "inputs": [],
            "outputs": [
                {
                    "name": "",
                    "type": "address",
                    "internalType": "address"
                }
            ],
            "stateMutability": "view"
        },
        {
            "type": "function",
            "name": "getCurrentDrawPrice",
            "inputs": [
                {
                    "name": "player",
                    "type": "address",
                    "internalType": "address"
                }
            ],
            "outputs": [
                {
                    "name": "",
                    "type": "uint256",
                    "internalType": "uint256"
                }
            ],
            "stateMutability": "view"
        },
        {
            "type": "function",
            "name": "getLastRoundWinners",
            "inputs": [],
            "outputs": [
                {
                    "name": "",
                    "type": "tuple[]",
                    "internalType": "struct WOF.WinnerInfo[]",
                    "components": [
                        {
                            "name": "player",
                            "type": "address",
                            "internalType": "address"
                        },
                        {
                            "name": "score",
                            "type": "uint256",
                            "internalType": "uint256"
                        },
                        {
                            "name": "amountWon",
                            "type": "uint256",
                            "internalType": "uint256"
                        }
                    ]
                }
            ],
            "stateMutability": "view"
        },
        {
            "type": "function",
            "name": "getPlayerHand",
            "inputs": [
                {
                    "name": "player",
                    "type": "address",
                    "internalType": "address"
                }
            ],
            "outputs": [
                {
                    "name": "",
                    "type": "string[]",
                    "internalType": "string[]"
                }
            ],
            "stateMutability": "view"
        },
        {
            "type": "function",
            "name": "getPlayerHandInternal",
            "inputs": [
                {
                    "name": "player",
                    "type": "address",
                    "internalType": "address"
                }
            ],
            "outputs": [
                {
                    "name": "",
                    "type": "uint256[]",
                    "internalType": "uint256[]"
                }
            ],
            "stateMutability": "view"
        },
        {
            "type": "function",
            "name": "getPlayerScore",
            "inputs": [
                {
                    "name": "player",
                    "type": "address",
                    "internalType": "address"
                }
            ],
            "outputs": [
                {
                    "name": "",
                    "type": "uint256",
                    "internalType": "uint256"
                }
            ],
            "stateMutability": "view"
        },
        {
            "type": "function",
            "name": "getPrizePool",
            "inputs": [],
            "outputs": [
                {
                    "name": "",
                    "type": "uint256",
                    "internalType": "uint256"
                }
            ],
            "stateMutability": "view"
        },
        {
            "type": "function",
            "name": "getTotalCardsLeft",
            "inputs": [],
            "outputs": [
                {
                    "name": "",
                    "type": "uint256",
                    "internalType": "uint256"
                }
            ],
            "stateMutability": "view"
        },
        {
            "type": "function",
            "name": "lastRoundWinners",
            "inputs": [
                {
                    "name": "",
                    "type": "uint256",
                    "internalType": "uint256"
                }
            ],
            "outputs": [
                {
                    "name": "player",
                    "type": "address",
                    "internalType": "address"
                },
                {
                    "name": "score",
                    "type": "uint256",
                    "internalType": "uint256"
                },
                {
                    "name": "amountWon",
                    "type": "uint256",
                    "internalType": "uint256"
                }
            ],
            "stateMutability": "view"
        },
        {
            "type": "function",
            "name": "players",
            "inputs": [
                {
                    "name": "",
                    "type": "address",
                    "internalType": "address"
                }
            ],
            "outputs": [
                {
                    "name": "score",
                    "type": "uint256",
                    "internalType": "uint256"
                },
                {
                    "name": "cardCount",
                    "type": "uint256",
                    "internalType": "uint256"
                },
                {
                    "name": "drawPrice",
                    "type": "uint256",
                    "internalType": "uint256"
                },
                {
                    "name": "hasWheelOfFortune",
                    "type": "bool",
                    "internalType": "bool"
                }
            ],
            "stateMutability": "view"
        },
        {
            "type": "function",
            "name": "prizePool",
            "inputs": [],
            "outputs": [
                {
                    "name": "",
                    "type": "uint256",
                    "internalType": "uint256"
                }
            ],
            "stateMutability": "view"
        },
        {
            "type": "function",
            "name": "totalCards",
            "inputs": [],
            "outputs": [
                {
                    "name": "",
                    "type": "uint256",
                    "internalType": "uint256"
                }
            ],
            "stateMutability": "view"
        },
        {
            "type": "function",
            "name": "wheelOfFortuneWinners",
            "inputs": [
                {
                    "name": "",
                    "type": "uint256",
                    "internalType": "uint256"
                }
            ],
            "outputs": [
                {
                    "name": "",
                    "type": "address",
                    "internalType": "address"
                }
            ],
            "stateMutability": "view"
        },
        {
            "type": "event",
            "name": "CardDrawn",
            "inputs": [
                {
                    "name": "player",
                    "type": "address",
                    "indexed": true,
                    "internalType": "address"
                },
                {
                    "name": "card",
                    "type": "uint256",
                    "indexed": false,
                    "internalType": "uint256"
                },
                {
                    "name": "newScore",
                    "type": "uint256",
                    "indexed": false,
                    "internalType": "uint256"
                }
            ],
            "anonymous": false
        },
        {
            "type": "event",
            "name": "PrizePoolDistributed",
            "inputs": [
                {
                    "name": "nextRound",
                    "type": "uint256",
                    "indexed": false,
                    "internalType": "uint256"
                },
                {
                    "name": "winnerPrize",
                    "type": "uint256",
                    "indexed": false,
                    "internalType": "uint256"
                },
                {
                    "name": "highestScorePrize",
                    "type": "uint256",
                    "indexed": false,
                    "internalType": "uint256"
                },
                {
                    "name": "fee",
                    "type": "uint256",
                    "indexed": false,
                    "internalType": "uint256"
                }
            ],
            "anonymous": false
        },
        {
            "type": "event",
            "name": "WheelOfFortuneWon",
            "inputs": [
                {
                    "name": "player",
                    "type": "address",
                    "indexed": true,
                    "internalType": "address"
                },
                {
                    "name": "prize",
                    "type": "uint256",
                    "indexed": false,
                    "internalType": "uint256"
                }
            ],
            "anonymous": false
        }
    ],
    "bytecode": {
        "object": "0x6080604052606a600355662386f26fc1000060045534801561002057600080fd5b5060006002556116d5806100356000396000f3fe6080604052600436106100f35760003560e01c8063884bf67c1161008a578063e085c53911610059578063e085c539146102c8578063e2eb41ff146102fe578063e994c15d14610365578063eb274c341461037b57600080fd5b8063884bf67c146102395780639e6cd6ef1461024e578063aca770f01461027b578063cece2fa01461029b57600080fd5b8063676e4952116100c6578063676e49521461017c5780636c46376d146101bc578063719ce73e146101de578063811ea187146101f457600080fd5b80631efc3abd146100f85780632f5be23e1461011c57806346904840146101265780635460170214610166575b600080fd5b34801561010457600080fd5b506003545b6040519081526020015b60405180910390f35b6101246103b4565b005b34801561013257600080fd5b5061014e7326202f062912f183b0d7aee8fbb76b67354aeae181565b6040516001600160a01b039091168152602001610113565b34801561017257600080fd5b5061010960045481565b34801561018857600080fd5b506101ac6101973660046113e3565b60016020526000908152604090205460ff1681565b6040519015158152602001610113565b3480156101c857600080fd5b506101d161065f565b60405161011391906113fc565b3480156101ea57600080fd5b5061010960025481565b34801561020057600080fd5b5061021461020f3660046113e3565b6106e1565b604080516001600160a01b039094168452602084019290925290820152606001610113565b34801561024557600080fd5b50600254610109565b34801561025a57600080fd5b5061026e61026936600461145e565b61071e565b604051610113919061148e565b34801561028757600080fd5b5061014e6102963660046113e3565b61078b565b3480156102a757600080fd5b506102bb6102b636600461145e565b6107b5565b60405161011391906114f6565b3480156102d457600080fd5b506101096102e336600461145e565b6001600160a01b031660009081526020819052604090205490565b34801561030a57600080fd5b5061034361031936600461145e565b60006020819052908152604090208054600182015460028301546004909301549192909160ff1684565b6040805194855260208501939093529183015215156060820152608001610113565b34801561037157600080fd5b5061010960035481565b34801561038757600080fd5b5061010961039636600461145e565b6001600160a01b031660009081526020819052604090206002015490565b336000908152602081905260409020600181015460051161041c5760405162461bcd60e51b815260206004820152601760248201527f4d6178696d756d203520636172647320616c6c6f77656400000000000000000060448201526064015b60405180910390fd5b80600201543410156104675760405162461bcd60e51b8152602060048201526014602482015273125b9cdd59999a58da595b9d081c185e5b595b9d60621b6044820152606401610413565b34600260008282546104799190611586565b909155506000905061048a33610888565b6003830180546001818101835560009283526020832090910183905584018054929350906104b78361159f565b9091555050600380549060006104cc836115b8565b919050555060038110156105805760048201805460ff191660019081179091556005805491820181556000527f036b6384b5eca791c62761152d0c79bb0604c104a5fb6f4eb0703f3154bb3db00180546001600160a01b031916339081179091556002547fd1ea439ca757d87678f2dc45a29347af16a1630eeb2b2a46241b03346c431eee9060649061056090601e6115cf565b61056a91906115fc565b60405190815260200160405180910390a26105de565b6105db826003018054806020026020016040519081016040528092919081815260200182805480156105d157602002820191906000526020600020905b8154815260200190600101908083116105bd575b505050505061098f565b82555b60018260010154116105f257600454610601565b600280830154610601916115cf565b6002830155815460405133917fae86095265d3686050bd8abbfa417ef89a09b047cb7abe4b58d3af26e3e9559f9161064191858252602082015260400190565b60405180910390a260035460000361065b5761065b610b41565b5050565b60606006805480602002602001604051908101604052809291908181526020016000905b828210156106d8576000848152602090819020604080516060810182526003860290920180546001600160a01b0316835260018082015484860152600290910154918301919091529083529092019101610683565b50505050905090565b600681815481106106f157600080fd5b60009182526020909120600390910201805460018201546002909201546001600160a01b03909116925083565b6001600160a01b0381166000908152602081815260409182902060030180548351818402810184019094528084526060939283018282801561077f57602002820191906000526020600020905b81548152602001906001019080831161076b575b50505050509050919050565b6005818154811061079b57600080fd5b6000918252602090912001546001600160a01b0316905081565b6001600160a01b038116600090815260208190526040812060038101546060929067ffffffffffffffff8111156107ee576107ee611610565b60405190808252806020026020018201604052801561082157816020015b606081526020019060019003908161080c5790505b50905060005b60038301548110156108805761085b83600301828154811061084b5761084b611626565b9060005260206000200154610f23565b82828151811061086d5761086d611626565b6020908102919091010152600101610827565b509392505050565b600080600354116108d35760405162461bcd60e51b81526020600482015260156024820152744e6f206361726473206c65667420746f206472617760581b6044820152606401610413565b60005b606b42846003546040516020016109129392919092835260609190911b6bffffffffffffffffffffffff19166020830152603482015260540190565b6040516020818303038152906040528051906020012060001c610935919061163c565b60008181526001602052604090205490915060ff161561096d57606b61095c826001611586565b610966919061163c565b90506108d6565b6000818152600160208190526040909120805460ff1916909117905592915050565b60008061099a61131d565b6109a261133c565b6000855167ffffffffffffffff8111156109be576109be611610565b6040519080825280602002602001820160405280156109e7578160200160208202803683370190505b50905060005b8651811015610b36576003878281518110610a0a57610a0a611626565b602002602001015110610b2e576000600d6003898481518110610a2f57610a2f611626565b6020026020010151610a419190611650565b610a4b919061163c565b90506000600d60038a8581518110610a6557610a65611626565b6020026020010151610a779190611650565b610a8191906115fc565b90508582600d8110610a9557610a95611626565b60200201805190610aa58261159f565b905250848160088110610aba57610aba611626565b60200201805190610aca8261159f565b9052508115610ae357610ade826001611586565b610ae6565b600e5b848481518110610af857610af8611626565b602002602001018181525050838381518110610b1657610b16611626565b602002602001015187610b299190611586565b965050505b6001016109ed565b509295945050505050565b60035415610b895760405162461bcd60e51b815260206004820152601560248201527411d85b59481b9bdd08199a5b9a5cda1959081e595d605a1b6044820152606401610413565b60006064600254601e610b9c91906115cf565b610ba691906115fc565b905060006064600254601e610bbb91906115cf565b610bc591906115fc565b905060006064600254601e610bda91906115cf565b610be491906115fc565b905060006064600254600a610bf991906115cf565b610c0391906115fc565b9050610c116006600061135b565b600284905560005b600554811015610d6d57600060058281548110610c3857610c38611626565b60009182526020822001546005546001600160a01b039091169250610c5d90876115fc565b6040519091506001600160a01b0383169082156108fc029083906000818181858888f19350505050158015610c96573d6000803e3d6000fd5b50604080516060810182526001600160a01b03938416808252600090815260208181528382205490830190815292820193845260068054600180820183559190925291517ff652222313e28459528d920b65115c16c04f3efc82aaedc97be59f3f377c0d3f600390920291820180546001600160a01b031916919096161790945590517ff652222313e28459528d920b65115c16c04f3efc82aaedc97be59f3f377c0d4084015590517ff652222313e28459528d920b65115c16c04f3efc82aaedc97be59f3f377c0d419092019190915501610c19565b506000610d7861125a565b90506001600160a01b03811615610e8a576040516001600160a01b0382169084156108fc029085906000818181858888f19350505050158015610dbf573d6000803e3d6000fd5b50604080516060810182526001600160a01b03838116808352600090815260208181528482205490840190815293830187815260068054600181018255925292517ff652222313e28459528d920b65115c16c04f3efc82aaedc97be59f3f377c0d3f600390920291820180546001600160a01b031916919093161790915591517ff652222313e28459528d920b65115c16c04f3efc82aaedc97be59f3f377c0d40830155517ff652222313e28459528d920b65115c16c04f3efc82aaedc97be59f3f377c0d41909101555b6040517326202f062912f183b0d7aee8fbb76b67354aeae19083156108fc029084906000818181858888f19350505050158015610ecb573d6000803e3d6000fd5b50610ed46112de565b6040805186815260208101869052908101849052606081018390527fea8cf667287fb2b46063f1a1b3cb58d2e65d4f5bb3ea6c456f0b51e202bc88b09060800160405180910390a15050505050565b6040805161014080820183526008610100808401918252674469616d6f6e647360c01b610120808601919091529184528451808601865260068082526553706164657360d01b60208381019190915280870192909252865180880188529081526548656172747360d01b818301528587015285518087018752600580825264436c75627360d81b8284015260608781019290925287518089018952600980825268547269616e676c657360b81b828601526080808a01929092528951808b018b5292835264537461727360d81b8386015260a0808a01939093528951808b018b52818152684c696768746e696e6760b81b8187015260c0808b01919091528a51808c018c529182526814dd185c9b1a59da1d60ba1b8287015260e0808b01929092528a516101e081018c5260016101a08201818152604160f81b6101c084015282528c51808e018e52818152601960f91b818a0152828901528c51808e018e52818152603360f81b818a0152828e01528c51808e018e52818152600d60fa1b818a0152828801528c51808e018e52818152603560f81b818a0152948201949094528b51808d018d52848152601b60f91b81890152948101949094528a51808c018c52838152603760f81b81880152908401528951808b018b52828152600760fb1b81870152908301528851808a018a52818152603960f81b8186015294820194909452875180890189526002815261031360f41b818501529481019490945286518088018852838152602560f91b818401529484019490945285518087018752828152605160f81b818301526101608401528551808701909652908552604b60f81b908501526101808101939093529160038410156111cb57505060408051808201909152601081526f576865656c206f6620466f7274756e6560801b602082015292915050565b6000600d6111da600387611650565b6111e491906115fc565b90506000600d6111f5600388611650565b6111ff919061163c565b905083826008811061121357611213611626565b60200201518382600d811061122a5761122a611626565b6020020151604051602001611240929190611663565b604051602081830303815290604052945050505050919050565b60008080805b6005548110156112d65760006005828154811061127f5761127f611626565b60009182526020808320909101546001600160a01b0316808352908290526040909120549091508310156112cd576001600160a01b0381166000908152602081905260409020549093509150825b50600101611260565b509092915050565b60005b606b811015611309576000818152600160208190526040909120805460ff19169055016112e1565b50606a60035561131b6005600061137f565b565b604051806101a00160405280600d906020820280368337509192915050565b6040518061010001604052806008906020820280368337509192915050565b508054600082556003029060005260206000209081019061137c919061139d565b50565b508054600082559060005260206000209081019061137c91906113ce565b5b808211156113ca5780546001600160a01b0319168155600060018201819055600282015560030161139e565b5090565b5b808211156113ca57600081556001016113cf565b6000602082840312156113f557600080fd5b5035919050565b602080825282518282018190526000919060409081850190868401855b8281101561145157815180516001600160a01b0316855286810151878601528501518585015260609093019290850190600101611419565b5091979650505050505050565b60006020828403121561147057600080fd5b81356001600160a01b038116811461148757600080fd5b9392505050565b6020808252825182820181905260009190848201906040850190845b818110156114c6578351835292840192918401916001016114aa565b50909695505050505050565b60005b838110156114ed5781810151838201526020016114d5565b50506000910152565b6000602080830181845280855180835260408601915060408160051b870101925083870160005b8281101561156357878503603f1901845281518051808752611544818989018a85016114d2565b601f01601f19169590950186019450928501929085019060010161151d565b5092979650505050505050565b634e487b7160e01b600052601160045260246000fd5b8082018082111561159957611599611570565b92915050565b6000600182016115b1576115b1611570565b5060010190565b6000816115c7576115c7611570565b506000190190565b808202811582820484141761159957611599611570565b634e487b7160e01b600052601260045260246000fd5b60008261160b5761160b6115e6565b500490565b634e487b7160e01b600052604160045260246000fd5b634e487b7160e01b600052603260045260246000fd5b60008261164b5761164b6115e6565b500690565b8181038181111561159957611599611570565b600083516116758184602088016114d2565b600160fd1b90830190815283516116938160018401602088016114d2565b0160010194935050505056fea26469706673582212207c1748ea72d597969965db64ef31aa80c359a2751aea842a54de5ab52570be9664736f6c63430008170033",
        "linkReferences": {}
    },
    "methodIdentifiers": {
        "baseDrawPrice()": "54601702",
        "drawCard()": "2f5be23e",
        "drawnCards(uint256)": "676e4952",
        "feeRecipient()": "46904840",
        "getCurrentDrawPrice(address)": "eb274c34",
        "getLastRoundWinners()": "6c46376d",
        "getPlayerHand(address)": "cece2fa0",
        "getPlayerHandInternal(address)": "9e6cd6ef",
        "getPlayerScore(address)": "e085c539",
        "getPrizePool()": "884bf67c",
        "getTotalCardsLeft()": "1efc3abd",
        "lastRoundWinners(uint256)": "811ea187",
        "players(address)": "e2eb41ff",
        "prizePool()": "719ce73e",
        "totalCards()": "e994c15d",
        "wheelOfFortuneWinners(uint256)": "aca770f0"
    },
    "id": 23
}